{
  "contractName": "SmartContract",
  "abi": [
    {
      "inputs": [],
      "stateMutability": "nonpayable",
      "type": "constructor"
    },
    {
      "anonymous": false,
      "inputs": [
        {
          "indexed": true,
          "internalType": "address",
          "name": "owner",
          "type": "address"
        },
        {
          "indexed": true,
          "internalType": "address",
          "name": "approved",
          "type": "address"
        },
        {
          "indexed": true,
          "internalType": "uint256",
          "name": "tokenId",
          "type": "uint256"
        }
      ],
      "name": "Approval",
      "type": "event"
    },
    {
      "anonymous": false,
      "inputs": [
        {
          "indexed": true,
          "internalType": "address",
          "name": "owner",
          "type": "address"
        },
        {
          "indexed": true,
          "internalType": "address",
          "name": "operator",
          "type": "address"
        },
        {
          "indexed": false,
          "internalType": "bool",
          "name": "approved",
          "type": "bool"
        }
      ],
      "name": "ApprovalForAll",
      "type": "event"
    },
    {
      "anonymous": false,
      "inputs": [
        {
          "indexed": true,
          "internalType": "address",
          "name": "previousOwner",
          "type": "address"
        },
        {
          "indexed": true,
          "internalType": "address",
          "name": "newOwner",
          "type": "address"
        }
      ],
      "name": "OwnershipTransferred",
      "type": "event"
    },
    {
      "anonymous": false,
      "inputs": [
        {
          "indexed": true,
          "internalType": "address",
          "name": "from",
          "type": "address"
        },
        {
          "indexed": true,
          "internalType": "address",
          "name": "to",
          "type": "address"
        },
        {
          "indexed": true,
          "internalType": "uint256",
          "name": "tokenId",
          "type": "uint256"
        }
      ],
      "name": "Transfer",
      "type": "event"
    },
    {
      "inputs": [
        {
          "internalType": "address",
          "name": "to",
          "type": "address"
        },
        {
          "internalType": "uint256",
          "name": "tokenId",
          "type": "uint256"
        }
      ],
      "name": "approve",
      "outputs": [],
      "stateMutability": "nonpayable",
      "type": "function"
    },
    {
      "inputs": [
        {
          "internalType": "address",
          "name": "owner",
          "type": "address"
        }
      ],
      "name": "balanceOf",
      "outputs": [
        {
          "internalType": "uint256",
          "name": "",
          "type": "uint256"
        }
      ],
      "stateMutability": "view",
      "type": "function",
      "constant": true
    },
    {
      "inputs": [
        {
          "internalType": "uint256",
          "name": "tokenId",
          "type": "uint256"
        }
      ],
      "name": "getApproved",
      "outputs": [
        {
          "internalType": "address",
          "name": "",
          "type": "address"
        }
      ],
      "stateMutability": "view",
      "type": "function",
      "constant": true
    },
    {
      "inputs": [
        {
          "internalType": "address",
          "name": "owner",
          "type": "address"
        },
        {
          "internalType": "address",
          "name": "operator",
          "type": "address"
        }
      ],
      "name": "isApprovedForAll",
      "outputs": [
        {
          "internalType": "bool",
          "name": "",
          "type": "bool"
        }
      ],
      "stateMutability": "view",
      "type": "function",
      "constant": true
    },
    {
      "inputs": [],
      "name": "name",
      "outputs": [
        {
          "internalType": "string",
          "name": "",
          "type": "string"
        }
      ],
      "stateMutability": "view",
      "type": "function",
      "constant": true
    },
    {
      "inputs": [],
      "name": "owner",
      "outputs": [
        {
          "internalType": "address",
          "name": "",
          "type": "address"
        }
      ],
      "stateMutability": "view",
      "type": "function",
      "constant": true
    },
    {
      "inputs": [
        {
          "internalType": "uint256",
          "name": "tokenId",
          "type": "uint256"
        }
      ],
      "name": "ownerOf",
      "outputs": [
        {
          "internalType": "address",
          "name": "",
          "type": "address"
        }
      ],
      "stateMutability": "view",
      "type": "function",
      "constant": true
    },
    {
      "inputs": [],
      "name": "renounceOwnership",
      "outputs": [],
      "stateMutability": "nonpayable",
      "type": "function"
    },
    {
      "inputs": [
        {
          "internalType": "address",
          "name": "from",
          "type": "address"
        },
        {
          "internalType": "address",
          "name": "to",
          "type": "address"
        },
        {
          "internalType": "uint256",
          "name": "tokenId",
          "type": "uint256"
        }
      ],
      "name": "safeTransferFrom",
      "outputs": [],
      "stateMutability": "nonpayable",
      "type": "function"
    },
    {
      "inputs": [
        {
          "internalType": "address",
          "name": "from",
          "type": "address"
        },
        {
          "internalType": "address",
          "name": "to",
          "type": "address"
        },
        {
          "internalType": "uint256",
          "name": "tokenId",
          "type": "uint256"
        },
        {
          "internalType": "bytes",
          "name": "data",
          "type": "bytes"
        }
      ],
      "name": "safeTransferFrom",
      "outputs": [],
      "stateMutability": "nonpayable",
      "type": "function"
    },
    {
      "inputs": [
        {
          "internalType": "address",
          "name": "operator",
          "type": "address"
        },
        {
          "internalType": "bool",
          "name": "approved",
          "type": "bool"
        }
      ],
      "name": "setApprovalForAll",
      "outputs": [],
      "stateMutability": "nonpayable",
      "type": "function"
    },
    {
      "inputs": [
        {
          "internalType": "bytes4",
          "name": "interfaceId",
          "type": "bytes4"
        }
      ],
      "name": "supportsInterface",
      "outputs": [
        {
          "internalType": "bool",
          "name": "",
          "type": "bool"
        }
      ],
      "stateMutability": "view",
      "type": "function",
      "constant": true
    },
    {
      "inputs": [],
      "name": "symbol",
      "outputs": [
        {
          "internalType": "string",
          "name": "",
          "type": "string"
        }
      ],
      "stateMutability": "view",
      "type": "function",
      "constant": true
    },
    {
      "inputs": [
        {
          "internalType": "address",
          "name": "from",
          "type": "address"
        },
        {
          "internalType": "address",
          "name": "to",
          "type": "address"
        },
        {
          "internalType": "uint256",
          "name": "tokenId",
          "type": "uint256"
        }
      ],
      "name": "transferFrom",
      "outputs": [],
      "stateMutability": "nonpayable",
      "type": "function"
    },
    {
      "inputs": [
        {
          "internalType": "address",
          "name": "newOwner",
          "type": "address"
        }
      ],
      "name": "transferOwnership",
      "outputs": [],
      "stateMutability": "nonpayable",
      "type": "function"
    },
    {
      "inputs": [
        {
          "internalType": "uint256",
          "name": "tokenId",
          "type": "uint256"
        }
      ],
      "name": "tokenURI",
      "outputs": [
        {
          "internalType": "string",
          "name": "",
          "type": "string"
        }
      ],
      "stateMutability": "view",
      "type": "function",
      "constant": true
    },
    {
      "inputs": [],
      "name": "getAllTokens",
      "outputs": [
        {
          "components": [
            {
              "internalType": "uint256",
              "name": "id",
              "type": "uint256"
            },
            {
              "internalType": "string",
              "name": "uri",
              "type": "string"
            }
          ],
          "internalType": "struct SmartContract.RenderToken[]",
          "name": "",
          "type": "tuple[]"
        }
      ],
      "stateMutability": "view",
      "type": "function",
      "constant": true
    },
    {
      "inputs": [
        {
          "internalType": "address",
          "name": "recipient",
          "type": "address"
        },
        {
          "internalType": "string",
          "name": "uri",
          "type": "string"
        }
      ],
      "name": "mint",
      "outputs": [
        {
          "internalType": "uint256",
          "name": "",
          "type": "uint256"
        }
      ],
      "stateMutability": "nonpayable",
      "type": "function"
    }
  ],
  "bytecode": "0x60806040523480156200001157600080fd5b506040518060400160405280600e81526020016d14db585c9d0810dbdb9d1c9858dd60921b81525060405180604001604052806002815260200161534360f01b815250816000908162000065919062000192565b50600162000074828262000192565b505050620000916200008b6200009760201b60201c565b6200009b565b6200025e565b3390565b600680546001600160a01b038381166001600160a01b0319831681179093556040519116919082907f8be0079c531659141344cd1fd0a4f28419497f9722a3daafe3b4186f6b6457e090600090a35050565b634e487b7160e01b600052604160045260246000fd5b600181811c908216806200011857607f821691505b6020821081036200013957634e487b7160e01b600052602260045260246000fd5b50919050565b601f8211156200018d57600081815260208120601f850160051c81016020861015620001685750805b601f850160051c820191505b81811015620001895782815560010162000174565b5050505b505050565b81516001600160401b03811115620001ae57620001ae620000ed565b620001c681620001bf845462000103565b846200013f565b602080601f831160018114620001fe5760008415620001e55750858301515b600019600386901b1c1916600185901b17855562000189565b600085815260208120601f198616915b828110156200022f578886015182559484019460019091019084016200020e565b50858210156200024e5787850151600019600388901b60f8161c191681555b5050505050600190811b01905550565b61166e806200026e6000396000f3fe608060405234801561001057600080fd5b50600436106101165760003560e01c8063715018a6116100a2578063b88d4fde11610071578063b88d4fde1461023b578063c87b56dd1461024e578063d0def52114610261578063e985e9c514610274578063f2fde38b146102b057600080fd5b8063715018a6146102075780638da5cb5b1461020f57806395d89b4114610220578063a22cb4651461022857600080fd5b806323b872dd116100e957806323b872dd146101985780632a5c792a146101ab57806342842e0e146101c05780636352211e146101d357806370a08231146101e657600080fd5b806301ffc9a71461011b57806306fdde0314610143578063081812fc14610158578063095ea7b314610183575b600080fd5b61012e610129366004611002565b6102c3565b60405190151581526020015b60405180910390f35b61014b610315565b60405161013a919061106c565b61016b61016636600461107f565b6103a7565b6040516001600160a01b03909116815260200161013a565b6101966101913660046110b4565b6103ce565b005b6101966101a63660046110de565b6104e8565b6101b3610519565b60405161013a919061111a565b6101966101ce3660046110de565b61061e565b61016b6101e136600461107f565b610639565b6101f96101f436600461118e565b610699565b60405190815260200161013a565b61019661071f565b6006546001600160a01b031661016b565b61014b610733565b6101966102363660046111a9565b610742565b610196610249366004611271565b610751565b61014b61025c36600461107f565b610789565b6101f961026f3660046112ed565b61084c565b61012e61028236600461134f565b6001600160a01b03918216600090815260056020908152604080832093909416825291909152205460ff1690565b6101966102be36600461118e565b610883565b60006001600160e01b031982166380ac58cd60e01b14806102f457506001600160e01b03198216635b5e139f60e01b145b8061030f57506301ffc9a760e01b6001600160e01b03198316145b92915050565b60606000805461032490611382565b80601f016020809104026020016040519081016040528092919081815260200182805461035090611382565b801561039d5780601f106103725761010080835404028352916020019161039d565b820191906000526020600020905b81548152906001019060200180831161038057829003601f168201915b5050505050905090565b60006103b2826108fc565b506000908152600460205260409020546001600160a01b031690565b60006103d982610639565b9050806001600160a01b0316836001600160a01b03160361044b5760405162461bcd60e51b815260206004820152602160248201527f4552433732313a20617070726f76616c20746f2063757272656e74206f776e656044820152603960f91b60648201526084015b60405180910390fd5b336001600160a01b038216148061046757506104678133610282565b6104d95760405162461bcd60e51b815260206004820152603e60248201527f4552433732313a20617070726f76652063616c6c6572206973206e6f7420746f60448201527f6b656e206f776e6572206e6f7220617070726f76656420666f7220616c6c00006064820152608401610442565b6104e3838361095b565b505050565b6104f233826109c9565b61050e5760405162461bcd60e51b8152600401610442906113bc565b6104e3838383610a48565b6060600061052660075490565b90506000808267ffffffffffffffff811115610544576105446111e5565b60405190808252806020026020018201604052801561058a57816020015b6040805180820190915260008152606060208201528152602001906001900390816105625790505b50905060005b83811015610616576000838152600260205260409020546001600160a01b0316156105f65760006105c084610789565b90506040518060400160405280858152602001828152508385815181106105e9576105e961140a565b6020026020010181905250505b8261060081611436565b935050808061060e90611436565b915050610590565b509392505050565b6104e383838360405180602001604052806000815250610751565b6000818152600260205260408120546001600160a01b03168061030f5760405162461bcd60e51b8152602060048201526018602482015277115490cdcc8c4e881a5b9d985b1a59081d1bdad95b88125160421b6044820152606401610442565b60006001600160a01b0382166107035760405162461bcd60e51b815260206004820152602960248201527f4552433732313a2061646472657373207a65726f206973206e6f7420612076616044820152683634b21037bbb732b960b91b6064820152608401610442565b506001600160a01b031660009081526003602052604090205490565b610727610be4565b6107316000610c3e565b565b60606001805461032490611382565b61074d338383610c90565b5050565b61075b33836109c9565b6107775760405162461bcd60e51b8152600401610442906113bc565b61078384848484610d5e565b50505050565b6000818152600260205260409020546060906001600160a01b03166107ad57600080fd5b600082815260086020526040812080546107c690611382565b80601f01602080910402602001604051908101604052809291908181526020018280546107f290611382565b801561083f5780601f106108145761010080835404028352916020019161083f565b820191906000526020600020905b81548152906001019060200180831161082257829003601f168201915b5093979650505050505050565b60008061085860075490565b90506108648482610d91565b61086e8184610ed3565b61087c600780546001019055565b9392505050565b61088b610be4565b6001600160a01b0381166108f05760405162461bcd60e51b815260206004820152602660248201527f4f776e61626c653a206e6577206f776e657220697320746865207a65726f206160448201526564647265737360d01b6064820152608401610442565b6108f981610c3e565b50565b6000818152600260205260409020546001600160a01b03166108f95760405162461bcd60e51b8152602060048201526018602482015277115490cdcc8c4e881a5b9d985b1a59081d1bdad95b88125160421b6044820152606401610442565b600081815260046020526040902080546001600160a01b0319166001600160a01b038416908117909155819061099082610639565b6001600160a01b03167f8c5be1e5ebec7d5bd14f71427d1e84f3dd0314c0f7b2291e5b200ac8c7c3b92560405160405180910390a45050565b6000806109d583610639565b9050806001600160a01b0316846001600160a01b03161480610a1c57506001600160a01b0380821660009081526005602090815260408083209388168352929052205460ff165b80610a405750836001600160a01b0316610a35846103a7565b6001600160a01b0316145b949350505050565b826001600160a01b0316610a5b82610639565b6001600160a01b031614610abf5760405162461bcd60e51b815260206004820152602560248201527f4552433732313a207472616e736665722066726f6d20696e636f72726563742060448201526437bbb732b960d91b6064820152608401610442565b6001600160a01b038216610b215760405162461bcd60e51b8152602060048201526024808201527f4552433732313a207472616e7366657220746f20746865207a65726f206164646044820152637265737360e01b6064820152608401610442565b610b2c60008261095b565b6001600160a01b0383166000908152600360205260408120805460019290610b5590849061144f565b90915550506001600160a01b0382166000908152600360205260408120805460019290610b83908490611466565b909155505060008181526002602052604080822080546001600160a01b0319166001600160a01b0386811691821790925591518493918716917fddf252ad1be2c89b69c2b068fc378daa952ba7f163c4a11628f55a4df523b3ef91a4505050565b6006546001600160a01b031633146107315760405162461bcd60e51b815260206004820181905260248201527f4f776e61626c653a2063616c6c6572206973206e6f7420746865206f776e65726044820152606401610442565b600680546001600160a01b038381166001600160a01b0319831681179093556040519116919082907f8be0079c531659141344cd1fd0a4f28419497f9722a3daafe3b4186f6b6457e090600090a35050565b816001600160a01b0316836001600160a01b031603610cf15760405162461bcd60e51b815260206004820152601960248201527f4552433732313a20617070726f766520746f2063616c6c6572000000000000006044820152606401610442565b6001600160a01b03838116600081815260056020908152604080832094871680845294825291829020805460ff191686151590811790915591519182527f17307eab39ab6107e8899845ad3d59bd9653f200f220920489ca2b5937696c31910160405180910390a3505050565b610d69848484610a48565b610d7584848484610eeb565b6107835760405162461bcd60e51b81526004016104429061147e565b6001600160a01b038216610de75760405162461bcd60e51b815260206004820181905260248201527f4552433732313a206d696e7420746f20746865207a65726f20616464726573736044820152606401610442565b6000818152600260205260409020546001600160a01b031615610e4c5760405162461bcd60e51b815260206004820152601c60248201527f4552433732313a20746f6b656e20616c7265616479206d696e746564000000006044820152606401610442565b6001600160a01b0382166000908152600360205260408120805460019290610e75908490611466565b909155505060008181526002602052604080822080546001600160a01b0319166001600160a01b03861690811790915590518392907fddf252ad1be2c89b69c2b068fc378daa952ba7f163c4a11628f55a4df523b3ef908290a45050565b60008281526008602052604090206104e3828261151e565b60006001600160a01b0384163b15610fe157604051630a85bd0160e11b81526001600160a01b0385169063150b7a0290610f2f9033908990889088906004016115de565b6020604051808303816000875af1925050508015610f6a575060408051601f3d908101601f19168201909252610f679181019061161b565b60015b610fc7573d808015610f98576040519150601f19603f3d011682016040523d82523d6000602084013e610f9d565b606091505b508051600003610fbf5760405162461bcd60e51b81526004016104429061147e565b805181602001fd5b6001600160e01b031916630a85bd0160e11b149050610a40565b506001949350505050565b6001600160e01b0319811681146108f957600080fd5b60006020828403121561101457600080fd5b813561087c81610fec565b6000815180845260005b8181101561104557602081850181015186830182015201611029565b81811115611057576000602083870101525b50601f01601f19169290920160200192915050565b60208152600061087c602083018461101f565b60006020828403121561109157600080fd5b5035919050565b80356001600160a01b03811681146110af57600080fd5b919050565b600080604083850312156110c757600080fd5b6110d083611098565b946020939093013593505050565b6000806000606084860312156110f357600080fd5b6110fc84611098565b925061110a60208501611098565b9150604084013590509250925092565b60006020808301818452808551808352604092508286019150828160051b87010184880160005b8381101561118057888303603f1901855281518051845287015187840187905261116d8785018261101f565b9588019593505090860190600101611141565b509098975050505050505050565b6000602082840312156111a057600080fd5b61087c82611098565b600080604083850312156111bc57600080fd5b6111c583611098565b9150602083013580151581146111da57600080fd5b809150509250929050565b634e487b7160e01b600052604160045260246000fd5b600067ffffffffffffffff80841115611216576112166111e5565b604051601f8501601f19908116603f0116810190828211818310171561123e5761123e6111e5565b8160405280935085815286868601111561125757600080fd5b858560208301376000602087830101525050509392505050565b6000806000806080858703121561128757600080fd5b61129085611098565b935061129e60208601611098565b925060408501359150606085013567ffffffffffffffff8111156112c157600080fd5b8501601f810187136112d257600080fd5b6112e1878235602084016111fb565b91505092959194509250565b6000806040838503121561130057600080fd5b61130983611098565b9150602083013567ffffffffffffffff81111561132557600080fd5b8301601f8101851361133657600080fd5b611345858235602084016111fb565b9150509250929050565b6000806040838503121561136257600080fd5b61136b83611098565b915061137960208401611098565b90509250929050565b600181811c9082168061139657607f821691505b6020821081036113b657634e487b7160e01b600052602260045260246000fd5b50919050565b6020808252602e908201527f4552433732313a2063616c6c6572206973206e6f7420746f6b656e206f776e6560408201526d1c881b9bdc88185c1c1c9bdd995960921b606082015260800190565b634e487b7160e01b600052603260045260246000fd5b634e487b7160e01b600052601160045260246000fd5b60006001820161144857611448611420565b5060010190565b60008282101561146157611461611420565b500390565b6000821982111561147957611479611420565b500190565b60208082526032908201527f4552433732313a207472616e7366657220746f206e6f6e20455243373231526560408201527131b2b4bb32b91034b6b83632b6b2b73a32b960711b606082015260800190565b601f8211156104e357600081815260208120601f850160051c810160208610156114f75750805b601f850160051c820191505b8181101561151657828155600101611503565b505050505050565b815167ffffffffffffffff811115611538576115386111e5565b61154c816115468454611382565b846114d0565b602080601f83116001811461158157600084156115695750858301515b600019600386901b1c1916600185901b178555611516565b600085815260208120601f198616915b828110156115b057888601518255948401946001909101908401611591565b50858210156115ce5787850151600019600388901b60f8161c191681555b5050505050600190811b01905550565b6001600160a01b03858116825284166020820152604081018390526080606082018190526000906116119083018461101f565b9695505050505050565b60006020828403121561162d57600080fd5b815161087c81610fec56fea2646970667358221220693fcb11b403ab0b63b7efa5c7189df8f3c8bcc8d9377d2c082e8cd783fb0bf464736f6c634300080f0033",
  "immutableReferences": {},
  "source": "// SPDX-License-Identifier: MIT\n\npragma solidity ^0.8.0;\n\nimport \"@openzeppelin/contracts/token/ERC721/ERC721.sol\";\nimport \"@openzeppelin/contracts/utils/Counters.sol\";\nimport \"@openzeppelin/contracts/access/Ownable.sol\";\n\ncontract SmartContract is ERC721, Ownable {\n  using Counters for Counters.Counter;\n  using Strings for uint256;\n  Counters.Counter _tokenIds;\n  mapping(uint256 => string) _tokenURIs;\n\n  struct RenderToken {\n    uint256 id;\n    string uri;\n  }\n\n  constructor() ERC721(\"Smart Contract\", \"SC\") {}\n\n  function _setTokenURI(uint256 tokenId, string memory _tokenURI) internal {\n    _tokenURIs[tokenId] = _tokenURI;\n  }\n\n  function tokenURI(uint256 tokenId)\n    public\n    view\n    virtual\n    override\n    returns (string memory)\n  {\n    require(_exists(tokenId));\n    string memory _tokenURI = _tokenURIs[tokenId];\n    return _tokenURI;\n  }\n\n  function getAllTokens() public view returns (RenderToken[] memory) {\n    uint256 lastestId = _tokenIds.current();\n    uint256 counter = 0;\n    RenderToken[] memory res = new RenderToken[](lastestId);\n    for (uint256 i = 0; i < lastestId; i++) {\n      if (_exists(counter)) {\n        string memory uri = tokenURI(counter);\n        res[counter] = RenderToken(counter, uri);\n      }\n      counter++;\n    }\n    return res;\n  }\n\n  function mint(address recipient, string memory uri) public returns (uint256) {\n    uint256 newId = _tokenIds.current();\n    _mint(recipient, newId);\n    _setTokenURI(newId, uri);\n    _tokenIds.increment();\n    return newId;\n  }\n}",
  "sourcePath": "/Users/sangwonseo/Dev/nft/NFT_template_Daniel_0524_22/nft template-v1.0/contracts/SmartContract.sol",
  "compiler": {
    "name": "solc",
    "version": "0.8.15+commit.e14f2714.Emscripten.clang"
  },
  "schemaVersion": "3.4.7",
  "updatedAt": "2022-07-01T07:12:44.523Z",
  "networkType": "ethereum",
  "devdoc": {
    "kind": "dev",
    "methods": {
      "approve(address,uint256)": {
        "details": "See {IERC721-approve}."
      },
      "balanceOf(address)": {
        "details": "See {IERC721-balanceOf}."
      },
      "getApproved(uint256)": {
        "details": "See {IERC721-getApproved}."
      },
      "isApprovedForAll(address,address)": {
        "details": "See {IERC721-isApprovedForAll}."
      },
      "name()": {
        "details": "See {IERC721Metadata-name}."
      },
      "owner()": {
        "details": "Returns the address of the current owner."
      },
      "ownerOf(uint256)": {
        "details": "See {IERC721-ownerOf}."
      },
      "renounceOwnership()": {
        "details": "Leaves the contract without owner. It will not be possible to call `onlyOwner` functions anymore. Can only be called by the current owner. NOTE: Renouncing ownership will leave the contract without an owner, thereby removing any functionality that is only available to the owner."
      },
      "safeTransferFrom(address,address,uint256)": {
        "details": "See {IERC721-safeTransferFrom}."
      },
      "safeTransferFrom(address,address,uint256,bytes)": {
        "details": "See {IERC721-safeTransferFrom}."
      },
      "setApprovalForAll(address,bool)": {
        "details": "See {IERC721-setApprovalForAll}."
      },
      "supportsInterface(bytes4)": {
        "details": "See {IERC165-supportsInterface}."
      },
      "symbol()": {
        "details": "See {IERC721Metadata-symbol}."
      },
      "tokenURI(uint256)": {
        "details": "See {IERC721Metadata-tokenURI}."
      },
      "transferFrom(address,address,uint256)": {
        "details": "See {IERC721-transferFrom}."
      },
      "transferOwnership(address)": {
        "details": "Transfers ownership of the contract to a new account (`newOwner`). Can only be called by the current owner."
      }
    },
    "version": 1
  },
  "userdoc": {
    "kind": "user",
    "methods": {},
    "version": 1
  }
}