{
  "contractName": "SwordNft",
  "abi": [
    {
      "inputs": [],
      "stateMutability": "nonpayable",
      "type": "constructor"
    },
    {
      "anonymous": false,
      "inputs": [
        {
          "indexed": true,
          "internalType": "address",
          "name": "owner",
          "type": "address"
        },
        {
          "indexed": true,
          "internalType": "address",
          "name": "approved",
          "type": "address"
        },
        {
          "indexed": true,
          "internalType": "uint256",
          "name": "tokenId",
          "type": "uint256"
        }
      ],
      "name": "Approval",
      "type": "event"
    },
    {
      "anonymous": false,
      "inputs": [
        {
          "indexed": true,
          "internalType": "address",
          "name": "owner",
          "type": "address"
        },
        {
          "indexed": true,
          "internalType": "address",
          "name": "operator",
          "type": "address"
        },
        {
          "indexed": false,
          "internalType": "bool",
          "name": "approved",
          "type": "bool"
        }
      ],
      "name": "ApprovalForAll",
      "type": "event"
    },
    {
      "anonymous": false,
      "inputs": [
        {
          "indexed": true,
          "internalType": "address",
          "name": "previousOwner",
          "type": "address"
        },
        {
          "indexed": true,
          "internalType": "address",
          "name": "newOwner",
          "type": "address"
        }
      ],
      "name": "OwnershipTransferred",
      "type": "event"
    },
    {
      "anonymous": false,
      "inputs": [
        {
          "indexed": true,
          "internalType": "address",
          "name": "from",
          "type": "address"
        },
        {
          "indexed": true,
          "internalType": "address",
          "name": "to",
          "type": "address"
        },
        {
          "indexed": true,
          "internalType": "uint256",
          "name": "tokenId",
          "type": "uint256"
        }
      ],
      "name": "Transfer",
      "type": "event"
    },
    {
      "inputs": [
        {
          "internalType": "address",
          "name": "to",
          "type": "address"
        },
        {
          "internalType": "uint256",
          "name": "tokenId",
          "type": "uint256"
        }
      ],
      "name": "approve",
      "outputs": [],
      "stateMutability": "nonpayable",
      "type": "function"
    },
    {
      "inputs": [
        {
          "internalType": "uint256",
          "name": "",
          "type": "uint256"
        }
      ],
      "name": "attributes",
      "outputs": [
        {
          "internalType": "string",
          "name": "name",
          "type": "string"
        },
        {
          "internalType": "string",
          "name": "imgUrl",
          "type": "string"
        },
        {
          "internalType": "string",
          "name": "material",
          "type": "string"
        },
        {
          "internalType": "uint8",
          "name": "speed",
          "type": "uint8"
        },
        {
          "internalType": "uint8",
          "name": "attack",
          "type": "uint8"
        },
        {
          "internalType": "uint8",
          "name": "defence",
          "type": "uint8"
        }
      ],
      "stateMutability": "view",
      "type": "function"
    },
    {
      "inputs": [
        {
          "internalType": "address",
          "name": "owner",
          "type": "address"
        }
      ],
      "name": "balanceOf",
      "outputs": [
        {
          "internalType": "uint256",
          "name": "",
          "type": "uint256"
        }
      ],
      "stateMutability": "view",
      "type": "function"
    },
    {
      "inputs": [
        {
          "internalType": "uint256",
          "name": "tokenId",
          "type": "uint256"
        }
      ],
      "name": "getApproved",
      "outputs": [
        {
          "internalType": "address",
          "name": "",
          "type": "address"
        }
      ],
      "stateMutability": "view",
      "type": "function"
    },
    {
      "inputs": [
        {
          "internalType": "address",
          "name": "owner",
          "type": "address"
        },
        {
          "internalType": "address",
          "name": "operator",
          "type": "address"
        }
      ],
      "name": "isApprovedForAll",
      "outputs": [
        {
          "internalType": "bool",
          "name": "",
          "type": "bool"
        }
      ],
      "stateMutability": "view",
      "type": "function"
    },
    {
      "inputs": [],
      "name": "name",
      "outputs": [
        {
          "internalType": "string",
          "name": "",
          "type": "string"
        }
      ],
      "stateMutability": "view",
      "type": "function"
    },
    {
      "inputs": [],
      "name": "owner",
      "outputs": [
        {
          "internalType": "address",
          "name": "",
          "type": "address"
        }
      ],
      "stateMutability": "view",
      "type": "function"
    },
    {
      "inputs": [
        {
          "internalType": "uint256",
          "name": "tokenId",
          "type": "uint256"
        }
      ],
      "name": "ownerOf",
      "outputs": [
        {
          "internalType": "address",
          "name": "",
          "type": "address"
        }
      ],
      "stateMutability": "view",
      "type": "function"
    },
    {
      "inputs": [],
      "name": "renounceOwnership",
      "outputs": [],
      "stateMutability": "nonpayable",
      "type": "function"
    },
    {
      "inputs": [
        {
          "internalType": "address",
          "name": "from",
          "type": "address"
        },
        {
          "internalType": "address",
          "name": "to",
          "type": "address"
        },
        {
          "internalType": "uint256",
          "name": "tokenId",
          "type": "uint256"
        }
      ],
      "name": "safeTransferFrom",
      "outputs": [],
      "stateMutability": "nonpayable",
      "type": "function"
    },
    {
      "inputs": [
        {
          "internalType": "address",
          "name": "from",
          "type": "address"
        },
        {
          "internalType": "address",
          "name": "to",
          "type": "address"
        },
        {
          "internalType": "uint256",
          "name": "tokenId",
          "type": "uint256"
        },
        {
          "internalType": "bytes",
          "name": "data",
          "type": "bytes"
        }
      ],
      "name": "safeTransferFrom",
      "outputs": [],
      "stateMutability": "nonpayable",
      "type": "function"
    },
    {
      "inputs": [
        {
          "internalType": "address",
          "name": "operator",
          "type": "address"
        },
        {
          "internalType": "bool",
          "name": "approved",
          "type": "bool"
        }
      ],
      "name": "setApprovalForAll",
      "outputs": [],
      "stateMutability": "nonpayable",
      "type": "function"
    },
    {
      "inputs": [],
      "name": "symbol",
      "outputs": [
        {
          "internalType": "string",
          "name": "",
          "type": "string"
        }
      ],
      "stateMutability": "view",
      "type": "function"
    },
    {
      "inputs": [
        {
          "internalType": "uint256",
          "name": "index",
          "type": "uint256"
        }
      ],
      "name": "tokenByIndex",
      "outputs": [
        {
          "internalType": "uint256",
          "name": "",
          "type": "uint256"
        }
      ],
      "stateMutability": "view",
      "type": "function"
    },
    {
      "inputs": [
        {
          "internalType": "address",
          "name": "owner",
          "type": "address"
        },
        {
          "internalType": "uint256",
          "name": "index",
          "type": "uint256"
        }
      ],
      "name": "tokenOfOwnerByIndex",
      "outputs": [
        {
          "internalType": "uint256",
          "name": "",
          "type": "uint256"
        }
      ],
      "stateMutability": "view",
      "type": "function"
    },
    {
      "inputs": [],
      "name": "totalSupply",
      "outputs": [
        {
          "internalType": "uint256",
          "name": "",
          "type": "uint256"
        }
      ],
      "stateMutability": "view",
      "type": "function"
    },
    {
      "inputs": [
        {
          "internalType": "address",
          "name": "from",
          "type": "address"
        },
        {
          "internalType": "address",
          "name": "to",
          "type": "address"
        },
        {
          "internalType": "uint256",
          "name": "tokenId",
          "type": "uint256"
        }
      ],
      "name": "transferFrom",
      "outputs": [],
      "stateMutability": "nonpayable",
      "type": "function"
    },
    {
      "inputs": [
        {
          "internalType": "address",
          "name": "newOwner",
          "type": "address"
        }
      ],
      "name": "transferOwnership",
      "outputs": [],
      "stateMutability": "nonpayable",
      "type": "function"
    },
    {
      "inputs": [
        {
          "internalType": "bytes4",
          "name": "interfaceId",
          "type": "bytes4"
        }
      ],
      "name": "supportsInterface",
      "outputs": [
        {
          "internalType": "bool",
          "name": "",
          "type": "bool"
        }
      ],
      "stateMutability": "view",
      "type": "function"
    },
    {
      "inputs": [
        {
          "internalType": "address",
          "name": "to",
          "type": "address"
        },
        {
          "internalType": "uint256",
          "name": "tokenId",
          "type": "uint256"
        },
        {
          "internalType": "string",
          "name": "_name",
          "type": "string"
        },
        {
          "internalType": "string",
          "name": "_material",
          "type": "string"
        },
        {
          "internalType": "string",
          "name": "_ipfsUrl",
          "type": "string"
        },
        {
          "internalType": "uint8",
          "name": "_speed",
          "type": "uint8"
        },
        {
          "internalType": "uint8",
          "name": "_attack",
          "type": "uint8"
        },
        {
          "internalType": "uint8",
          "name": "_defence",
          "type": "uint8"
        }
      ],
      "name": "mint",
      "outputs": [],
      "stateMutability": "nonpayable",
      "type": "function"
    },
    {
      "inputs": [
        {
          "internalType": "uint256",
          "name": "tokenId",
          "type": "uint256"
        }
      ],
      "name": "tokenURI",
      "outputs": [
        {
          "internalType": "string",
          "name": "",
          "type": "string"
        }
      ],
      "stateMutability": "view",
      "type": "function"
    }
  ],
  "bytecode": "0x60806040523480156200001157600080fd5b506040518060400160405280600581526020016414dddbdc9960da1b8152506040518060400160405280600581526020016414d5d3d49160da1b81525081600090816200005f91906200018c565b5060016200006e82826200018c565b5050506200008b620000856200009160201b60201c565b62000095565b62000258565b3390565b600a80546001600160a01b038381166001600160a01b0319831681179093556040519116919082907f8be0079c531659141344cd1fd0a4f28419497f9722a3daafe3b4186f6b6457e090600090a35050565b634e487b7160e01b600052604160045260246000fd5b600181811c908216806200011257607f821691505b6020821081036200013357634e487b7160e01b600052602260045260246000fd5b50919050565b601f8211156200018757600081815260208120601f850160051c81016020861015620001625750805b601f850160051c820191505b8181101562000183578281556001016200016e565b5050505b505050565b81516001600160401b03811115620001a857620001a8620000e7565b620001c081620001b98454620000fd565b8462000139565b602080601f831160018114620001f85760008415620001df5750858301515b600019600386901b1c1916600185901b17855562000183565b600085815260208120601f198616915b82811015620002295788860151825594840194600190910190840162000208565b5085821015620002485787850151600019600388901b60f8161c191681555b5050505050600190811b01905550565b6122c680620002686000396000f3fe608060405234801561001057600080fd5b50600436106101375760003560e01c80636352211e116100b8578063a22cb4651161007c578063a22cb46514610271578063b88d4fde14610284578063c87b56dd14610297578063d05dcc6a146102aa578063e985e9c5146102cf578063f2fde38b1461030b57600080fd5b80636352211e1461022a57806370a082311461023d578063715018a6146102505780638da5cb5b1461025857806395d89b411461026957600080fd5b806323b872dd116100ff57806323b872dd146101cb578063247a5cc3146101de5780632f745c59146101f157806342842e0e146102045780634f6ccce71461021757600080fd5b806301ffc9a71461013c57806306fdde0314610164578063081812fc14610179578063095ea7b3146101a457806318160ddd146101b9575b600080fd5b61014f61014a366004611871565b61031e565b60405190151581526020015b60405180910390f35b61016c61032f565b60405161015b91906118ed565b61018c610187366004611900565b6103c1565b6040516001600160a01b03909116815260200161015b565b6101b76101b2366004611935565b6103e8565b005b6008545b60405190815260200161015b565b6101b76101d936600461195f565b610502565b6101b76101ec366004611a58565b610533565b6101bd6101ff366004611935565b61060b565b6101b761021236600461195f565b6106a1565b6101bd610225366004611900565b6106bc565b61018c610238366004611900565b61074f565b6101bd61024b366004611b2d565b6107af565b6101b7610835565b600a546001600160a01b031661018c565b61016c610849565b6101b761027f366004611b48565b610858565b6101b7610292366004611b84565b610867565b61016c6102a5366004611900565b61089f565b6102bd6102b8366004611900565b610977565b60405161015b96959493929190611c00565b61014f6102dd366004611c5f565b6001600160a01b03918216600090815260056020908152604080832093909416825291909152205460ff1690565b6101b7610319366004611b2d565b610b4d565b600061032982610bc6565b92915050565b60606000805461033e90611c92565b80601f016020809104026020016040519081016040528092919081815260200182805461036a90611c92565b80156103b75780601f1061038c576101008083540402835291602001916103b7565b820191906000526020600020905b81548152906001019060200180831161039a57829003601f168201915b5050505050905090565b60006103cc82610beb565b506000908152600460205260409020546001600160a01b031690565b60006103f38261074f565b9050806001600160a01b0316836001600160a01b0316036104655760405162461bcd60e51b815260206004820152602160248201527f4552433732313a20617070726f76616c20746f2063757272656e74206f776e656044820152603960f91b60648201526084015b60405180910390fd5b336001600160a01b0382161480610481575061048181336102dd565b6104f35760405162461bcd60e51b815260206004820152603e60248201527f4552433732313a20617070726f76652063616c6c6572206973206e6f7420746f60448201527f6b656e206f776e6572206e6f7220617070726f76656420666f7220616c6c0000606482015260840161045c565b6104fd8383610c4a565b505050565b61050c3382610cb8565b6105285760405162461bcd60e51b815260040161045c90611ccc565b6104fd838383610d37565b61053b610ede565b6105458888610f38565b6040805160c081018252878152602080820187905281830188905260ff80871660608401528581166080840152841660a083015260008a8152600c90915291909120815181906105959082611d68565b50602082015160018201906105aa9082611d68565b50604082015160028201906105bf9082611d68565b50606082015160039091018054608084015160a09094015160ff908116620100000262ff0000199582166101000261ffff19909316919094161717929092161790555050505050505050565b6000610616836107af565b82106106785760405162461bcd60e51b815260206004820152602b60248201527f455243373231456e756d657261626c653a206f776e657220696e646578206f7560448201526a74206f6620626f756e647360a81b606482015260840161045c565b506001600160a01b03919091166000908152600660209081526040808320938352929052205490565b6104fd83838360405180602001604052806000815250610867565b60006106c760085490565b821061072a5760405162461bcd60e51b815260206004820152602c60248201527f455243373231456e756d657261626c653a20676c6f62616c20696e646578206f60448201526b7574206f6620626f756e647360a01b606482015260840161045c565b6008828154811061073d5761073d611e28565b90600052602060002001549050919050565b6000818152600260205260408120546001600160a01b0316806103295760405162461bcd60e51b8152602060048201526018602482015277115490cdcc8c4e881a5b9d985b1a59081d1bdad95b88125160421b604482015260640161045c565b60006001600160a01b0382166108195760405162461bcd60e51b815260206004820152602960248201527f4552433732313a2061646472657373207a65726f206973206e6f7420612076616044820152683634b21037bbb732b960b91b606482015260840161045c565b506001600160a01b031660009081526003602052604090205490565b61083d610ede565b6108476000610f52565b565b60606001805461033e90611c92565b610863338383610fa4565b5050565b6108713383610cb8565b61088d5760405162461bcd60e51b815260040161045c90611ccc565b61089984848484611072565b50505050565b6000818152600c6020526040812060038101546060929161094d9160018201906108cb9060ff166110a5565b6000878152600c60205260409020600301546108ee90610100900460ff166110a5565b6000888152600c60205260409020600301546109129062010000900460ff166110a5565b6000898152600c602090815260409182902091516109399796959493926002019101611ecd565b6040516020818303038152906040526111d1565b9050806040516020016109609190612085565b604051602081830303815290604052915050919050565b600c6020526000908152604090208054819061099290611c92565b80601f01602080910402602001604051908101604052809291908181526020018280546109be90611c92565b8015610a0b5780601f106109e057610100808354040283529160200191610a0b565b820191906000526020600020905b8154815290600101906020018083116109ee57829003601f168201915b505050505090806001018054610a2090611c92565b80601f0160208091040260200160405190810160405280929190818152602001828054610a4c90611c92565b8015610a995780601f10610a6e57610100808354040283529160200191610a99565b820191906000526020600020905b815481529060010190602001808311610a7c57829003601f168201915b505050505090806002018054610aae90611c92565b80601f0160208091040260200160405190810160405280929190818152602001828054610ada90611c92565b8015610b275780601f10610afc57610100808354040283529160200191610b27565b820191906000526020600020905b815481529060010190602001808311610b0a57829003601f168201915b5050506003909301549192505060ff808216916101008104821691620100009091041686565b610b55610ede565b6001600160a01b038116610bba5760405162461bcd60e51b815260206004820152602660248201527f4f776e61626c653a206e6577206f776e657220697320746865207a65726f206160448201526564647265737360d01b606482015260840161045c565b610bc381610f52565b50565b60006001600160e01b0319821663780e9d6360e01b1480610329575061032982611336565b6000818152600260205260409020546001600160a01b0316610bc35760405162461bcd60e51b8152602060048201526018602482015277115490cdcc8c4e881a5b9d985b1a59081d1bdad95b88125160421b604482015260640161045c565b600081815260046020526040902080546001600160a01b0319166001600160a01b0384169081179091558190610c7f8261074f565b6001600160a01b03167f8c5be1e5ebec7d5bd14f71427d1e84f3dd0314c0f7b2291e5b200ac8c7c3b92560405160405180910390a45050565b600080610cc48361074f565b9050806001600160a01b0316846001600160a01b03161480610d0b57506001600160a01b0380821660009081526005602090815260408083209388168352929052205460ff165b80610d2f5750836001600160a01b0316610d24846103c1565b6001600160a01b0316145b949350505050565b826001600160a01b0316610d4a8261074f565b6001600160a01b031614610dae5760405162461bcd60e51b815260206004820152602560248201527f4552433732313a207472616e736665722066726f6d20696e636f72726563742060448201526437bbb732b960d91b606482015260840161045c565b6001600160a01b038216610e105760405162461bcd60e51b8152602060048201526024808201527f4552433732313a207472616e7366657220746f20746865207a65726f206164646044820152637265737360e01b606482015260840161045c565b610e1b838383611386565b610e26600082610c4a565b6001600160a01b0383166000908152600360205260408120805460019290610e4f9084906120e0565b90915550506001600160a01b0382166000908152600360205260408120805460019290610e7d9084906120f7565b909155505060008181526002602052604080822080546001600160a01b0319166001600160a01b0386811691821790925591518493918716917fddf252ad1be2c89b69c2b068fc378daa952ba7f163c4a11628f55a4df523b3ef91a4505050565b600a546001600160a01b031633146108475760405162461bcd60e51b815260206004820181905260248201527f4f776e61626c653a2063616c6c6572206973206e6f7420746865206f776e6572604482015260640161045c565b610863828260405180602001604052806000815250611391565b600a80546001600160a01b038381166001600160a01b0319831681179093556040519116919082907f8be0079c531659141344cd1fd0a4f28419497f9722a3daafe3b4186f6b6457e090600090a35050565b816001600160a01b0316836001600160a01b0316036110055760405162461bcd60e51b815260206004820152601960248201527f4552433732313a20617070726f766520746f2063616c6c657200000000000000604482015260640161045c565b6001600160a01b03838116600081815260056020908152604080832094871680845294825291829020805460ff191686151590811790915591519182527f17307eab39ab6107e8899845ad3d59bd9653f200f220920489ca2b5937696c31910160405180910390a3505050565b61107d848484610d37565b611089848484846113c4565b6108995760405162461bcd60e51b815260040161045c9061210f565b6060816000036110cc5750506040805180820190915260018152600360fc1b602082015290565b8160005b81156110f657806110e081612161565b91506110ef9050600a8361217a565b91506110d0565b60008167ffffffffffffffff8111156111115761111161199b565b6040519080825280601f01601f19166020018201604052801561113b576020820181803683370190505b509050815b85156111c8576111516001826120e0565b90506000611160600a8861217a565b61116b90600a61219c565b61117590886120e0565b6111809060306121bb565b905060008160f81b90508084848151811061119d5761119d611e28565b60200101906001600160f81b031916908160001a9053506111bf600a8961217a565b97505050611140565b50949350505050565b606081516000036111f057505060408051602081019091526000815290565b6000604051806060016040528060408152602001612251604091399050600060038451600261121f91906120f7565b611229919061217a565b61123490600461219c565b905060006112438260206120f7565b67ffffffffffffffff81111561125b5761125b61199b565b6040519080825280601f01601f191660200182016040528015611285576020820181803683370190505b509050818152600183018586518101602084015b818310156112f1576003830192508251603f8160121c168501518253600182019150603f81600c1c168501518253600182019150603f8160061c168501518253600182019150603f8116850151825350600101611299565b60038951066001811461130b576002811461131c57611328565b613d3d60f01b600119830152611328565b603d60f81b6000198301525b509398975050505050505050565b60006001600160e01b031982166380ac58cd60e01b148061136757506001600160e01b03198216635b5e139f60e01b145b8061032957506301ffc9a760e01b6001600160e01b0319831614610329565b6104fd8383836114c5565b61139b838361157d565b6113a860008484846113c4565b6104fd5760405162461bcd60e51b815260040161045c9061210f565b60006001600160a01b0384163b156114ba57604051630a85bd0160e11b81526001600160a01b0385169063150b7a02906114089033908990889088906004016121e0565b6020604051808303816000875af1925050508015611443575060408051601f3d908101601f191682019092526114409181019061221d565b60015b6114a0573d808015611471576040519150601f19603f3d011682016040523d82523d6000602084013e611476565b606091505b5080516000036114985760405162461bcd60e51b815260040161045c9061210f565b805181602001fd5b6001600160e01b031916630a85bd0160e11b149050610d2f565b506001949350505050565b6001600160a01b0383166115205761151b81600880546000838152600960205260408120829055600182018355919091527ff3f7a9fe364faab93b216da50a3214154f22a0a2b415b23a84c8169e8b636ee30155565b611543565b816001600160a01b0316836001600160a01b0316146115435761154383826116cb565b6001600160a01b03821661155a576104fd81611768565b826001600160a01b0316826001600160a01b0316146104fd576104fd8282611817565b6001600160a01b0382166115d35760405162461bcd60e51b815260206004820181905260248201527f4552433732313a206d696e7420746f20746865207a65726f2061646472657373604482015260640161045c565b6000818152600260205260409020546001600160a01b0316156116385760405162461bcd60e51b815260206004820152601c60248201527f4552433732313a20746f6b656e20616c7265616479206d696e74656400000000604482015260640161045c565b61164460008383611386565b6001600160a01b038216600090815260036020526040812080546001929061166d9084906120f7565b909155505060008181526002602052604080822080546001600160a01b0319166001600160a01b03861690811790915590518392907fddf252ad1be2c89b69c2b068fc378daa952ba7f163c4a11628f55a4df523b3ef908290a45050565b600060016116d8846107af565b6116e291906120e0565b600083815260076020526040902054909150808214611735576001600160a01b03841660009081526006602090815260408083208584528252808320548484528184208190558352600790915290208190555b5060009182526007602090815260408084208490556001600160a01b039094168352600681528383209183525290812055565b60085460009061177a906001906120e0565b600083815260096020526040812054600880549394509092849081106117a2576117a2611e28565b9060005260206000200154905080600883815481106117c3576117c3611e28565b60009182526020808320909101929092558281526009909152604080822084905585825281205560088054806117fb576117fb61223a565b6001900381819060005260206000200160009055905550505050565b6000611822836107af565b6001600160a01b039093166000908152600660209081526040808320868452825280832085905593825260079052919091209190915550565b6001600160e01b031981168114610bc357600080fd5b60006020828403121561188357600080fd5b813561188e8161185b565b9392505050565b60005b838110156118b0578181015183820152602001611898565b838111156108995750506000910152565b600081518084526118d9816020860160208601611895565b601f01601f19169290920160200192915050565b60208152600061188e60208301846118c1565b60006020828403121561191257600080fd5b5035919050565b80356001600160a01b038116811461193057600080fd5b919050565b6000806040838503121561194857600080fd5b61195183611919565b946020939093013593505050565b60008060006060848603121561197457600080fd5b61197d84611919565b925061198b60208501611919565b9150604084013590509250925092565b634e487b7160e01b600052604160045260246000fd5b600067ffffffffffffffff808411156119cc576119cc61199b565b604051601f8501601f19908116603f011681019082821181831017156119f4576119f461199b565b81604052809350858152868686011115611a0d57600080fd5b858560208301376000602087830101525050509392505050565b600082601f830112611a3857600080fd5b61188e838335602085016119b1565b803560ff8116811461193057600080fd5b600080600080600080600080610100898b031215611a7557600080fd5b611a7e89611919565b975060208901359650604089013567ffffffffffffffff80821115611aa257600080fd5b611aae8c838d01611a27565b975060608b0135915080821115611ac457600080fd5b611ad08c838d01611a27565b965060808b0135915080821115611ae657600080fd5b50611af38b828c01611a27565b945050611b0260a08a01611a47565b9250611b1060c08a01611a47565b9150611b1e60e08a01611a47565b90509295985092959890939650565b600060208284031215611b3f57600080fd5b61188e82611919565b60008060408385031215611b5b57600080fd5b611b6483611919565b915060208301358015158114611b7957600080fd5b809150509250929050565b60008060008060808587031215611b9a57600080fd5b611ba385611919565b9350611bb160208601611919565b925060408501359150606085013567ffffffffffffffff811115611bd457600080fd5b8501601f81018713611be557600080fd5b611bf4878235602084016119b1565b91505092959194509250565b60c081526000611c1360c08301896118c1565b8281036020840152611c2581896118c1565b90508281036040840152611c3981886118c1565b60ff968716606085015294861660808401525050921660a0909201919091529392505050565b60008060408385031215611c7257600080fd5b611c7b83611919565b9150611c8960208401611919565b90509250929050565b600181811c90821680611ca657607f821691505b602082108103611cc657634e487b7160e01b600052602260045260246000fd5b50919050565b6020808252602e908201527f4552433732313a2063616c6c6572206973206e6f7420746f6b656e206f776e6560408201526d1c881b9bdc88185c1c1c9bdd995960921b606082015260800190565b601f8211156104fd57600081815260208120601f850160051c81016020861015611d415750805b601f850160051c820191505b81811015611d6057828155600101611d4d565b505050505050565b815167ffffffffffffffff811115611d8257611d8261199b565b611d9681611d908454611c92565b84611d1a565b602080601f831160018114611dcb5760008415611db35750858301515b600019600386901b1c1916600185901b178555611d60565b600085815260208120601f198616915b82811015611dfa57888601518255948401946001909101908401611ddb565b5085821015611e185787850151600019600388901b60f8161c191681555b5050505050600190811b01905550565b634e487b7160e01b600052603260045260246000fd5b60008154611e4b81611c92565b60018281168015611e635760018114611e7857611ea7565b60ff1984168752821515830287019450611ea7565b8560005260208060002060005b85811015611e9e5781548a820152908401908201611e85565b50505082870194505b5050505092915050565b60008151611ec3818560208601611895565b9290920192915050565b693d913730b6b2911d101160b11b81526000611eec600a830189611e3e565b61088b60f21b8082526e1134b6b0b3b2afb230ba30911d101160891b6002830152611f1a601183018a611e3e565b9081527f2261747472696275746573223a205b7b2274726169745f74797065223a20225360028201526f03832b2b2111610113b30b63ab2911d160851b60228201528751909150611f72816032840160208b01611895565b611f4b60f21b603292909101918201527f7b2274726169745f74797065223a202241747461636b222c202276616c75652260348201526101d160f51b605482015261207861206a61205c61205661201f611fd6612019611fe48260568a018f611eb1565b611f4b60f21b815260020190565b7f7b2274726169745f74797065223a2022446566656e6365222c202276616c75658152620111d160ed1b602082015260230190565b8b611eb1565b7f7b2274726169745f74797065223a20224d6174657269616c222c202276616c7581526432911d101160d91b602082015260250190565b87611e3e565b61227d60f01b815260020190565b615d7d60f01b815260020190565b9998505050505050505050565b7f646174613a6170706c69636174696f6e2f6a736f6e3b6261736536342c0000008152600082516120bd81601d850160208701611895565b91909101601d0192915050565b634e487b7160e01b600052601160045260246000fd5b6000828210156120f2576120f26120ca565b500390565b6000821982111561210a5761210a6120ca565b500190565b60208082526032908201527f4552433732313a207472616e7366657220746f206e6f6e20455243373231526560408201527131b2b4bb32b91034b6b83632b6b2b73a32b960711b606082015260800190565b600060018201612173576121736120ca565b5060010190565b60008261219757634e487b7160e01b600052601260045260246000fd5b500490565b60008160001904831182151516156121b6576121b66120ca565b500290565b600060ff821660ff84168060ff038211156121d8576121d86120ca565b019392505050565b6001600160a01b0385811682528416602082015260408101839052608060608201819052600090612213908301846118c1565b9695505050505050565b60006020828403121561222f57600080fd5b815161188e8161185b565b634e487b7160e01b600052603160045260246000fdfe4142434445464748494a4b4c4d4e4f505152535455565758595a6162636465666768696a6b6c6d6e6f707172737475767778797a303132333435363738392b2fa2646970667358221220e3a3efc849396abf6530fd2de5ea565a931c109fef28d53b6ba1d7ec25ce95ca64736f6c634300080f0033",
  "immutableReferences": {},
  "source": "pragma solidity >=0.8.7;\n\nimport \"@openzeppelin/contracts/token/ERC721/ERC721.sol\";\nimport \"@openzeppelin/contracts/token/ERC721/extensions/ERC721Enumerable.sol\";\nimport \"@openzeppelin/contracts/access/Ownable.sol\";\n\nlibrary Base64 {\n    string internal constant TABLE_ENCODE = 'ABCDEFGHIJKLMNOPQRSTUVWXYZabcdefghijklmnopqrstuvwxyz0123456789+/';\n    bytes  internal constant TABLE_DECODE = hex\"0000000000000000000000000000000000000000000000000000000000000000\"\n                                            hex\"00000000000000000000003e0000003f3435363738393a3b3c3d000000000000\"\n                                            hex\"00000102030405060708090a0b0c0d0e0f101112131415161718190000000000\"\n                                            hex\"001a1b1c1d1e1f202122232425262728292a2b2c2d2e2f303132330000000000\";\n\n    function encode(bytes memory data) internal pure returns (string memory) {\n        if (data.length == 0) return '';\n\n        // load the table into memory\n        string memory table = TABLE_ENCODE;\n\n        // multiply by 4/3 rounded up\n        uint256 encodedLen = 4 * ((data.length + 2) / 3);\n\n        // add some extra buffer at the end required for the writing\n        string memory result = new string(encodedLen + 32);\n\n        assembly {\n            // set the actual output length\n            mstore(result, encodedLen)\n\n            // prepare the lookup table\n            let tablePtr := add(table, 1)\n\n            // input ptr\n            let dataPtr := data\n            let endPtr := add(dataPtr, mload(data))\n\n            // result ptr, jump over length\n            let resultPtr := add(result, 32)\n\n            // run over the input, 3 bytes at a time\n            for {} lt(dataPtr, endPtr) {}\n            {\n                // read 3 bytes\n                dataPtr := add(dataPtr, 3)\n                let input := mload(dataPtr)\n\n                // write 4 characters\n                mstore8(resultPtr, mload(add(tablePtr, and(shr(18, input), 0x3F))))\n                resultPtr := add(resultPtr, 1)\n                mstore8(resultPtr, mload(add(tablePtr, and(shr(12, input), 0x3F))))\n                resultPtr := add(resultPtr, 1)\n                mstore8(resultPtr, mload(add(tablePtr, and(shr( 6, input), 0x3F))))\n                resultPtr := add(resultPtr, 1)\n                mstore8(resultPtr, mload(add(tablePtr, and(        input,  0x3F))))\n                resultPtr := add(resultPtr, 1)\n            }\n\n            // padding with '='\n            switch mod(mload(data), 3)\n            case 1 { mstore(sub(resultPtr, 2), shl(240, 0x3d3d)) }\n            case 2 { mstore(sub(resultPtr, 1), shl(248, 0x3d)) }\n        }\n\n        return result;\n    }\n\n    function decode(string memory _data) internal pure returns (bytes memory) {\n        bytes memory data = bytes(_data);\n\n        if (data.length == 0) return new bytes(0);\n        require(data.length % 4 == 0, \"invalid base64 decoder input\");\n\n        // load the table into memory\n        bytes memory table = TABLE_DECODE;\n\n        // every 4 characters represent 3 bytes\n        uint256 decodedLen = (data.length / 4) * 3;\n\n        // add some extra buffer at the end required for the writing\n        bytes memory result = new bytes(decodedLen + 32);\n\n        assembly {\n            // padding with '='\n            let lastBytes := mload(add(data, mload(data)))\n            if eq(and(lastBytes, 0xFF), 0x3d) {\n                decodedLen := sub(decodedLen, 1)\n                if eq(and(lastBytes, 0xFFFF), 0x3d3d) {\n                    decodedLen := sub(decodedLen, 1)\n                }\n            }\n\n            // set the actual output length\n            mstore(result, decodedLen)\n\n            // prepare the lookup table\n            let tablePtr := add(table, 1)\n\n            // input ptr\n            let dataPtr := data\n            let endPtr := add(dataPtr, mload(data))\n\n            // result ptr, jump over length\n            let resultPtr := add(result, 32)\n\n            // run over the input, 4 characters at a time\n            for {} lt(dataPtr, endPtr) {}\n            {\n               // read 4 characters\n               dataPtr := add(dataPtr, 4)\n               let input := mload(dataPtr)\n\n               // write 3 bytes\n               let output := add(\n                   add(\n                       shl(18, and(mload(add(tablePtr, and(shr(24, input), 0xFF))), 0xFF)),\n                       shl(12, and(mload(add(tablePtr, and(shr(16, input), 0xFF))), 0xFF))),\n                   add(\n                       shl( 6, and(mload(add(tablePtr, and(shr( 8, input), 0xFF))), 0xFF)),\n                               and(mload(add(tablePtr, and(        input , 0xFF))), 0xFF)\n                    )\n                )\n                mstore(resultPtr, shl(232, output))\n                resultPtr := add(resultPtr, 3)\n            }\n        }\n\n        return result;\n    }\n}\n\ncontract SwordNft is ERC721, ERC721Enumerable, Ownable {\n    mapping(string => bool) private takenNames;\n    mapping(uint256 => Attr) public attributes;\n\n    struct Attr {\n        string name;\n        string imgUrl;\n        string material;\n        uint8 speed;\n        uint8 attack;\n        uint8 defence; \n    }\n\n    constructor() ERC721(\"Sword\", \"SWORD\") {}\n\n    function uint2str(uint _i) internal pure returns (string memory _uintAsString) {\n        if (_i == 0) {\n            return \"0\";\n        }\n        uint j = _i;\n        uint len;\n        while (j != 0) {\n            len++;\n            j /= 10;\n        }\n        bytes memory bstr = new bytes(len);\n        uint k = len;\n        while (_i != 0) {\n            k = k-1;\n            uint8 temp = (48 + uint8(_i - _i / 10 * 10));\n            bytes1 b1 = bytes1(temp);\n            bstr[k] = b1;\n            _i /= 10;\n        }\n        return string(bstr);\n    }\n\n    function _beforeTokenTransfer(address from, address to, uint256 tokenId)\n        internal\n        override(ERC721, ERC721Enumerable)\n    {\n        super._beforeTokenTransfer(from, to, tokenId);\n    }\n\n    function _burn(uint256 tokenId) internal override(ERC721) {\n        super._burn(tokenId);\n    }\n\n    function supportsInterface(bytes4 interfaceId)\n        public\n        view\n        override(ERC721, ERC721Enumerable)\n        returns (bool)\n    {\n        return super.supportsInterface(interfaceId);\n    }\n\n    function mint(\n        address to, \n        uint256 tokenId, \n        string memory _name, \n        string memory _material, \n        string memory _ipfsUrl,\n        uint8 _speed, \n        uint8 _attack, \n        uint8 _defence) \n    public onlyOwner {\n        _safeMint(to, tokenId);\n        attributes[tokenId] = Attr(_name, _ipfsUrl, _material, _speed, _attack, _defence);\n    }\n\n    function getSvg(uint tokenId) private view returns (string memory) {\n        string memory svg;\n        svg = \"<svg width='350px' height='350px' viewBox='0 0 24 24' fill='none' xmlns='http://www.w3.org/2000/svg'> <path d='M11.55 18.46C11.3516 18.4577 11.1617 18.3789 11.02 18.24L5.32001 12.53C5.19492 12.3935 5.12553 12.2151 5.12553 12.03C5.12553 11.8449 5.19492 11.6665 5.32001 11.53L13.71 3C13.8505 2.85931 14.0412 2.78017 14.24 2.78H19.99C20.1863 2.78 20.3745 2.85796 20.5133 2.99674C20.652 3.13552 20.73 3.32374 20.73 3.52L20.8 9.2C20.8003 9.40188 20.7213 9.5958 20.58 9.74L12.07 18.25C11.9282 18.3812 11.7432 18.4559 11.55 18.46ZM6.90001 12L11.55 16.64L19.3 8.89L19.25 4.27H14.56L6.90001 12Z' fill='red'/> <path d='M14.35 21.25C14.2512 21.2522 14.153 21.2338 14.0618 21.1959C13.9705 21.158 13.8882 21.1015 13.82 21.03L2.52 9.73999C2.38752 9.59782 2.3154 9.40977 2.31883 9.21547C2.32226 9.02117 2.40097 8.83578 2.53838 8.69837C2.67579 8.56096 2.86118 8.48224 3.05548 8.47882C3.24978 8.47539 3.43783 8.54751 3.58 8.67999L14.88 20C15.0205 20.1406 15.0993 20.3312 15.0993 20.53C15.0993 20.7287 15.0205 20.9194 14.88 21.06C14.7353 21.1907 14.5448 21.259 14.35 21.25Z' fill='red'/> <path d='M6.5 21.19C6.31632 21.1867 6.13951 21.1195 6 21L2.55 17.55C2.47884 17.4774 2.42276 17.3914 2.385 17.297C2.34724 17.2026 2.32855 17.1017 2.33 17C2.33 16.59 2.33 16.58 6.45 12.58C6.59063 12.4395 6.78125 12.3607 6.98 12.3607C7.17876 12.3607 7.36938 12.4395 7.51 12.58C7.65046 12.7206 7.72934 12.9112 7.72934 13.11C7.72934 13.3087 7.65046 13.4994 7.51 13.64C6.22001 14.91 4.82 16.29 4.12 17L6.5 19.38L9.86 16C9.92895 15.9292 10.0114 15.873 10.1024 15.8346C10.1934 15.7962 10.2912 15.7764 10.39 15.7764C10.4888 15.7764 10.5866 15.7962 10.6776 15.8346C10.7686 15.873 10.8511 15.9292 10.92 16C11.0605 16.1406 11.1393 16.3312 11.1393 16.53C11.1393 16.7287 11.0605 16.9194 10.92 17.06L7 21C6.8614 21.121 6.68402 21.1884 6.5 21.19Z' fill='red'/> </svg>\";\n        return svg;\n    }    \n\n    // Set metadata\n    function tokenURI(uint256 tokenId) override(ERC721) public view returns (string memory) {\n        string memory json = Base64.encode(\n            bytes(string(\n                abi.encodePacked(\n                    '{\"name\": \"', attributes[tokenId].name, '\",',\n                    '\"image_data\": \"', attributes[tokenId].imgUrl, '\",',\n                    '\"attributes\": [{\"trait_type\": \"Speed\", \"value\": ', uint2str(attributes[tokenId].speed), '},',\n                    '{\"trait_type\": \"Attack\", \"value\": ', uint2str(attributes[tokenId].attack), '},',\n                    '{\"trait_type\": \"Defence\", \"value\": ', uint2str(attributes[tokenId].defence), '},',\n                    '{\"trait_type\": \"Material\", \"value\": \"', attributes[tokenId].material, '\"}',\n                    ']}'\n                )\n            ))\n        );\n        return string(abi.encodePacked('data:application/json;base64,', json));\n    }    \n}",
  "sourcePath": "/Users/sangwonseo/Dev/nft/NFT_template_Daniel_0524_22/nft template-v1.0/contracts/SwordNFT.sol",
  "compiler": {
    "name": "solc",
    "version": "0.8.15+commit.e14f2714.Emscripten.clang"
  },
  "schemaVersion": "3.4.7",
  "updatedAt": "2022-07-01T07:10:56.533Z",
  "devdoc": {
    "kind": "dev",
    "methods": {
      "approve(address,uint256)": {
        "details": "See {IERC721-approve}."
      },
      "balanceOf(address)": {
        "details": "See {IERC721-balanceOf}."
      },
      "getApproved(uint256)": {
        "details": "See {IERC721-getApproved}."
      },
      "isApprovedForAll(address,address)": {
        "details": "See {IERC721-isApprovedForAll}."
      },
      "name()": {
        "details": "See {IERC721Metadata-name}."
      },
      "owner()": {
        "details": "Returns the address of the current owner."
      },
      "ownerOf(uint256)": {
        "details": "See {IERC721-ownerOf}."
      },
      "renounceOwnership()": {
        "details": "Leaves the contract without owner. It will not be possible to call `onlyOwner` functions anymore. Can only be called by the current owner. NOTE: Renouncing ownership will leave the contract without an owner, thereby removing any functionality that is only available to the owner."
      },
      "safeTransferFrom(address,address,uint256)": {
        "details": "See {IERC721-safeTransferFrom}."
      },
      "safeTransferFrom(address,address,uint256,bytes)": {
        "details": "See {IERC721-safeTransferFrom}."
      },
      "setApprovalForAll(address,bool)": {
        "details": "See {IERC721-setApprovalForAll}."
      },
      "symbol()": {
        "details": "See {IERC721Metadata-symbol}."
      },
      "tokenByIndex(uint256)": {
        "details": "See {IERC721Enumerable-tokenByIndex}."
      },
      "tokenOfOwnerByIndex(address,uint256)": {
        "details": "See {IERC721Enumerable-tokenOfOwnerByIndex}."
      },
      "tokenURI(uint256)": {
        "details": "See {IERC721Metadata-tokenURI}."
      },
      "totalSupply()": {
        "details": "See {IERC721Enumerable-totalSupply}."
      },
      "transferFrom(address,address,uint256)": {
        "details": "See {IERC721-transferFrom}."
      },
      "transferOwnership(address)": {
        "details": "Transfers ownership of the contract to a new account (`newOwner`). Can only be called by the current owner."
      }
    },
    "version": 1
  },
  "userdoc": {
    "kind": "user",
    "methods": {},
    "version": 1
  }
}